:020000021000EC
:10E000000C945FF20C947EF20C947EF20C94D8F88F
:10E010000C947EF20C947EF20C947EF20C947EF2C0
:10E020000C947EF20C947EF20C947EF20C947EF2B0
:10E030000C947EF20C947EF20C947EF20C947EF2A0
:10E040000C947EF20C947EF20C947EF20C947EF290
:10E050000C947EF20C947EF20C947EF20C947EF280
:10E060000C947EF20C947EF20C947EF20C947EF270
:10E070000C947EF20C947EF20C947EF20C947EF260
:10E080000C947EF20C947EF20C947EF20C947EF250
:10E090000C947EF20C947EF20C947EF20C947EF240
:10E0A0000C947EF20C947EF20C947EF20C947EF230
:10E0B0000C947EF20C947EF20C947EF20C947EF220
:10E0C0000C947EF20C947EF20C947EF20C947EF210
:10E0D0000C947EF20C947EF20C947EF20C947EF200
:10E0E0000C947EF20C947EF20C947EF20C943BF82D
:10E0F0000C944BF80C947EF20C947EF20C942FF856
:10E100000C947EF20C947EF20C947EF20C947EF2CF
:10E110000C947EF20C947EF20C947EF20C947EF2BF
:10E120000000000000000000065F0600000703007A
:10E13000070300247E247E2400242B6A120000633F
:10E14000130864630036495620500000070300009E
:10E1500000003E4100000000413E000000083E1C5F
:10E160003E080008083E08080000E06000000008C3
:10E170000808080800006060000000201008040281
:10E18000003E5149453E0000427F40000062514937
:10E190004946002249494936001814127F10002FC1
:10E1A00049494931003C4A49493000017109050398
:10E1B00000364949493600064949291E00006C6C61
:10E1C00000000000EC6C0000000814224100002454
:10E1D00024242424000041221408000201590906C5
:10E1E000003E415D551E007E1111117E007F4949A0
:10E1F0004936003E41414122007F4141413E007F7E
:10E2000049494941007F09090901003E4149497ACC
:10E21000007F0808087F0000417F41000030404037
:10E22000403F007F08142241007F40404040007F73
:10E230000204027F007F0204087F003E4141413E0C
:10E24000007F09090906003E4151215E007F09094E
:10E2500019660026494949320001017F0101003F4A
:10E260004040403F001F2040201F003F403C403FB7
:10E27000006314081463000708700807007149451B
:10E28000430000007F41410000020408102000000C
:10E2900041417F00000402010204008080808080F0
:10E2A000000003070000002054545478007F4444C9
:10E2B000443800384444442800384444447F0038FB
:10E2C0005454540800087E0909000018A4A4A47C32
:10E2D000007F040478000000007D4000004080843E
:10E2E0007D00007F102844000000007F4000007C7B
:10E2F00004180478007C040478000038444444384E
:10E3000000FC444444380038444444FC004478440D
:10E31000040800085454542000043E442400003CE7
:10E3200040207C00001C2040201C003C6030603CF1
:10E33000006C10106C00009CA0603C000064545401
:10E340004C0000083E414100000000770000000042
:10E3500041413E08000201020100003C2623263C08
:10E360000101637801110128633203C0F00002C388
:10E370000402C40502D01D02B30002B58B013802AD
:10E380003A0202360002B09F05F01212121201206A
:10E3900001290050726573732061206B65792074C8
:10E3A0006F2074727920616761696E4572726F7255
:10E3B0003A20776972656C657373206661696C6574
:10E3C0006420746F207374617274576972656C6530
:10E3D000737353657269616C3153657269616C3036
:10E3E0004C6F6164696E6720636F64652066726F4D
:10E3F0006D20342920446F776E6C6F6164206672E3
:10E400006F6D20776972656C657373332920446F73
:10E41000776E6C6F61642066726F6D2053657269F0
:10E42000616C31322920446F776E6C6F61642066B5
:10E43000726F6D2053657269616C3031292052759D
:10E440006E207265736964656E742070726F677296
:10E45000616D2A2A2A204C617272792773205352E7
:10E46000584520426F6F746C6F61646572202A2A70
:10E470002A31323334353637383930717765727432
:10E480007975696F706173646667686A6B6C0800A0
:10E490007A786376626E050004000D0000202C2E51
:10E4A0006D0203F0F1F2F3F4F5F6F7F8F9E4F1F3A5
:10E4B000E2E1D7A0A5D5D4E6B7B6B5B4E000112403
:10E4C0001FBECFEFD1E4DEBFCDBF12E0A0E0B2E0CF
:10E4D000EEE2FDEF01E00BBF02C007900D92AC3001
:10E4E000B107D9F725E0ACE0B2E001C01D92A63B30
:10E4F000B207E1F70E94ABF90C9495FE0C9400F082
:10E50000A0E0B0E01196ABBFFC0187910895CF92D7
:10E51000DF92EF92FF920F931F938B0120E030E088
:10E520002F5F3F4F141615069CF4DC01840F951FD6
:10E53000680179014FEFC41AD40AE40AF40A2BBF28
:10E54000F80107910D9397018601A817B90781F784
:10E550001F910F91FF90EF90DF90CF900895CF9390
:10E56000DF9300D000D0CDB7DEB79B01AC01A0E9AE
:10E57000B1E00E9441FEAB01BC0119821A821B82EC
:10E580001C8289819A81AB81BC8184179507A6077B
:10E59000B707A4F489819A81AB81BC810196A11D42
:10E5A000B11D89839A83AB83BC8389819A81AB81B6
:10E5B000BC8184179507A607B70764F30F900F90E7
:10E5C0000F900F90DF91CF910895982F87709295BB
:10E5D0009F709D3061F128F49A3049F09B30B9F07A
:10E5E00008959E30A1F19F3009F441C00895232B76
:10E5F00019F424E330E002C022E330E0FB01318370
:10E60000208323E330E0FA01318320830895232B14
:10E6100019F425E230E002C023E230E0FB0131834F
:10E62000208324E230E0FA01318320830895232BF4
:10E6300019F42BE230E002C029E230E0FB01318323
:10E6400020832AE230E0FA01318320830895232BCE
:10E6500019F42EE230E002C02CE230E0FB013183FD
:10E6600020832DE230E0FA01318320830895232BAB
:10E6700019F421E330E002C02FE230E0FB013183E6
:10E68000208320E330E0FA013183208308951F9333
:10E69000CF93DF9300D000D0CDB7DEB7162F20E0A8
:10E6A00030E0AE014D5F5F4FBE016F5F7F4F0E9454
:10E6B000E5F2113079F118F0123089F039C0EB81B0
:10E6C000FC81408121E030E0B90102C0660F771F74
:10E6D0008A95E2F7CB0180958423808329C0EB8162
:10E6E000FC81408121E030E0B90102C0660F771F54
:10E6F0008A95E2F7CB01942F982B9083E981FA81D8
:10E700009081982B9083EB81FC8190818095892367
:10E7100080830EC0EB81FC81408121E030E0B901B3
:10E7200002C0660F771F8A95E2F7CB01842B8083A6
:10E730000F900F900F900F90DF91CF911F91089540
:10E740001F93CF93DF9300D000D0CDB7DEB7162F45
:10E7500020E030E0AE014D5F5F4FBE016F5F7F4F45
:10E760000E94E5F2111110C0E981FA81408121E097
:10E7700030E0B90102C0660F771F8A95E2F7CB013E
:10E780008095842380830EC0E981FA81408121E055
:10E7900030E0B90102C0660F771F8A95E2F7CB011E
:10E7A000842B80830F900F900F900F90DF91CF916B
:10E7B0001F910895CF93DF9300D000D0CDB7DEB77F
:10E7C00021E030E0AE014D5F5F4FBE016F5F7F4FD4
:10E7D0000E94E5F2E981FA81208130E0A90102C0BE
:10E7E000559547958A95E2F7CA0181700F900F9071
:10E7F0000F900F90DF91CF91089561E0892B09F080
:10E8000060E08091B4050E94A0F30895CF93DF9358
:10E810001F92CDB7DEB7898389818EBD0DB407FE07
:10E82000FDCF8EB50F90DF91CF91089561E080EB21
:10E830000E94A0F361E080EB0E9447F380E58CBD6D
:10E840008DB58EB561E081EB0E9447F361E082EB0C
:10E850000E9447F30895CF93C82F81E090E00E9473
:10E86000FDF38C2F0E9406F480E090E00E94FDF3FF
:10E87000CF9108950F931F93CF93DF93161617062A
:10E8800054F48C01EC01060F171F89910E9406F4C5
:10E89000C017D107D1F7DF91CF911F910F91089544
:10E8A000EF92FF920F931F93CF93DF9300E613EE47
:10E8B00078018FEFE81AF80AC8010E9480F2C82F89
:10E8C000833661F40E5F1F4FC7010E9480F2682FEC
:10E8D00070E080E090E00E94AFF2EACF8823C1F0C0
:10E8E0000E5F1F4FC7010E9480F20E942BF4C1509F
:10E8F000F9F2D0E0AE01B8018EE294E00E9487F216
:10E900000C0F1D1FBE018EE294E00E943AF4D0CF9E
:10E91000DF91CF911F910F91FF90EF900895AF92EB
:10E92000BF92CF92DF92EF92FF920F931F93CF93FC
:10E93000DF93EC018B017A015901C03881E0D807DF
:10E94000DCF568387105C4F541385140ACF529381B
:10E95000310594F58AE20E942BF40F2EFEE2CF2EB1
:10E96000F4E0DF2EF02DF601108223E030E0CE013E
:10E97000B9010E942DFE61831282CE0DDF1DCE01F2
:10E980000197B9010E942DFE638364E070E0C60127
:10E990000E943AF48BE20E942BF4F601108201836C
:10E9A0001282AA940A0D038364E070E0C6010E94FB
:10E9B0003AF48CE20E942BF4DF91CF911F910F91DA
:10E9C000FF90EF90DF90CF90BF90AF9008952F927F
:10E9D0003F924F925F926F927F928F929F92AF92EF
:10E9E000BF92CF92DF92EF92FF920F931F93CF933C
:10E9F000DF93CDB7DEB7C457D1090FB6F894DEBFA9
:10EA00000FBECDBF6C013B01BA0149013323BCF4F9
:10EA1000919481949108A401CE0101960E946FFE09
:10EA2000C401880F991F880D991D880F991F880FA1
:10EA3000991F8C0D9D1D81389140A4F41CC0A90123
:10EA4000CE0101960E9487F2C401880F991F880D9C
:10EA5000991D880F991F880F991F8C0D9D1D813856
:10EA6000914064F080E891E08C199D096CE070E0C1
:10EA70000E942DFE4B0199200CF48FC0181419042C
:10EA80000CF08EC0FE0131965F018E0E9F1E0EE2CD
:10EA900014E07E01F8E6EF0EF11C22242394512CA1
:10EAA0000F2EFCEF3F2EF02D0F2EF0EE4F2EF02DFF
:10EAB000D5018D915D0190E08097BC01660F771FB5
:10EAC000680F791F660F771F605E7E4146E050E059
:10EAD000C8010E9487F29E01285D3F4F822D1EC013
:10EAE000452DD80114969C91982319F04360542D1C
:10EAF00001C0552DD80115969C91982309F05F61AE
:10EB0000DF0111974C9314974C93508334975083A3
:10EB1000880F285F3F4F2E153F0539F1F80190818E
:10EB2000982311F0532D01C0552DD80111969C91B9
:10EB3000982319F05360442D01C0452DF8019281AE
:10EB4000982309F04F61F901D90113975C93149749
:10EB50005C9315964C9314974C93D80113969C9103
:10EB6000982309F4BDCF432DBCCF20E130E04CE029
:10EB700050E0B301C6010E948FF460E470E0CE0162
:10EB800081960E943AF4BCE0CB0ED11CA814B904C3
:10EB900009F08ECF80E090E005C08FEF9FEF02C0BC
:10EBA00080E090E0CC58DF4F0FB6F894DEBF0FBE88
:10EBB000CDBFDF91CF911F910F91FF90EF90DF902C
:10EBC000CF90BF90AF909F908F907F906F905F900D
:10EBD0004F903F902F900895CF93DF93CDB7DEB73E
:10EBE00028970FB6F894DEBF0FBECDBF611102C0EB
:10EBF00092E501C093E59983982F9F7082958F705D
:10EC00008A3010F0895C01C0805D8A839A3010F0F0
:10EC1000995C01C0905D9B8380E28C838AE28D8346
:10EC200060910C0280E1689FB001112480910D0277
:10EC30002BEF3FEFAE014F5F5F4FE0E38E9FC001D0
:10EC400011240E94E7F480910D028F5F883018F440
:10EC500080930D0208C010920D0280910C028F5F0C
:10EC6000877080930C0228960FB6F894DEBF0FBE13
:10EC7000CDBFDF91CF910895EF92FF920F931F9335
:10EC8000CF93DF93CDB7DEB7C058D1090FB6F89454
:10EC9000DEBF0FBECDBFE82E28E830E040E851E0EF
:10ECA00060E070E080E090E00E948FF408E810E0FF
:10ECB000F12C40E850E0B701CE0101960E9478FEA9
:10ECC00060E870E0CE0101960E943AF4015011090B
:10ECD00081F7C058DF4F0FB6F894DEBF0FBECDBF2F
:10ECE000DF91CF911F910F91FF90EF90089580E0F9
:10ECF0000E943CF688E20E942BF480E10E942BF4F3
:10ED0000089580932E056093B40540932F050E94CB
:10ED100016F461E080912E050E9447F361E0809136
:10ED20002E050E94A0F361E08091B4050E9447F394
:10ED300061E080912F050E9447F361E080912F05EB
:10ED40000E94A0F362E370E080E090E00E94AFF2E6
:10ED500060E080912F050E94A0F365E070E080E004
:10ED600090E00E94AFF261E080912F050E94A0F335
:10ED700066E970E080E090E00E94AFF260E0809190
:10ED80002E050E94A0F30E9450F480E00E943CF601
:10ED900080E090E008953F924F925F926F927F9251
:10EDA0008F929F92AF92BF92CF92DF92EF92FF929B
:10EDB0000F931F93CF93DF93C7EBD4EE0DEB14EEBD
:10EDC000CE010E9480F262E00E9447F32196C017B4
:10EDD000D107B1F78AE0E3E2F4E0A3E1B3E0019008
:10EDE0000D928A95E1F70DEA14EE0F2EF3E2EF2E65
:10EDF000F4E0FF2EF02D0F2EFDE2AF2EF4E0BF2E3B
:10EE0000F02D512C312C412CCC24C394D12CE70172
:10EE10001882602E712EC8010E9480F261E00E946B
:10EE200047F3C8010E9480F260E00E94A0F3832CA7
:10EE3000942CC40189549B410E9480F20E94DAF311
:10EE400081110AC02881C601082C02C0880F991FB1
:10EE50000A94E2F7822B88838FEF881A980AE6E0FB
:10EE60008E16910431F7862D972D0E9480F261E075
:10EE70000E94A0F3862D972D0E9480F260E00E94F0
:10EE800047F3FFEFEF1AFF0A8881582A0F5F1F4FE1
:10EE9000EA14FB0409F0BBCF852DDF91CF911F91C0
:10EEA0000F91FF90EF90DF90CF90BF90AF909F9029
:10EEB0008F907F906F905F904F903F9008955F92FA
:10EEC0006F927F928F929F92AF92BF92CF92DF927A
:10EED000EF92FF920F931F93CF93DF930E94CBF695
:10EEE00000E010E080E00F2EFDEF5F2EF02D662495
:10EEF00063941CC0F7019081992199110CC0F6010F
:10EF00002081922341F4711003C0F1E0F81518F448
:10EF1000CE010E9480F2990C83942A96CA15DB05D3
:10EF200049F70F5F1F4F0A30110599F0E801CF58DC
:10EF3000DB41980123553B415901852C962CF80162
:10EF4000ED5DFB4F7F0198012D5E3C4F6901702EF6
:10EF5000D1CFDF91CF911F910F91FF90EF90DF9074
:10EF6000CF90BF90AF909F908F907F906F905F9069
:10EF70000895CF93C82F109232051092B5051092C4
:10EF8000200310921D03E9E3F1E0908191609083EA
:10EF900010924E01E2E4F1E09081907E98609083BF
:10EFA00061E070E080E090E00E94AFF2909141015A
:10EFB0009F719830E1F4E4E4F1E080818062808325
:10EFC0008CE480934E0185EF8C0F803108F0CBE00C
:10EFD000E8E4F1E09081907E8C2F892B8083E2E43D
:10EFE000F1E08081807E8660808381E001C080E0E6
:10EFF000CF91089580913205882381F180911D037E
:10F000008111FCCFE2E4F1E08081807E8960808321
:10F01000E1E4F1E080818970E9F3809132058E5F4F
:10F02000809380014091320550E064E375E081E80F
:10F0300091E00E946FFE10923205E9E3F1E08081D9
:10F040008260808380818D7F808381E080931D0337
:10F05000E2E4F1E08081807E8660808308951F92E3
:10F060000F920FB60F92112410921D030F900FBE36
:10F070000F901F9018951F920F920FB60F921124A8
:10F080008F938091460180932D048F910F900FBE36
:10F090000F901F9018951F920F920FB60F92112488
:10F0A0000BB60F922F933F938F93AF93BF93EF9332
:10F0B000FF9380912D048770C1F020917B01233054
:10F0C000A0F0235030E02F573E4FA0E8B1E0E09190
:10F0D000200381E08E0F809320038D91F0E0ED5EA0
:10F0E000FD4F8083A217B30791F7FF91EF91BF9176
:10F0F000AF918F913F912F910F900BBE0F900FBE4C
:10F100000F901F9018950F931F93CF93DF93F89450
:10F11000F999FECF1127E0911E03F0911F03C1E280
:10F12000D3E08091210490912204103091F4009159
:10F13000570001700130D9F303E000935700E895C0
:10F140000091570001700130D9F301E1009357009D
:10F15000E895099019900091570001700130D9F39A
:10F1600001E000935700E8951395103898F01127A7
:10F170000091570001700130D9F305E0009357006A
:10F18000E8950091570001700130D9F301E1009337
:10F190005700E8953296029709F0C7CF103011F06A
:10F1A0000296E5CF1124DF91CF911F910F91089521
:10F1B0001F920F920FB60F9211248F9383B78E7FF9
:10F1C00083BF8F910F900FBE0F901F9018950E94D4
:10F1D00077F682E08093390110927A0052985A9A19
:10F1E000EA98E9E6F0E080818F7C8083E29AEA9AEF
:10F1F00083B7817F846083BF83B7816083BF789446
:10F2000088950E9450F4089590911202913041F433
:10F21000E0ECF0E0908195FFFDCF8093C60008956B
:10F22000923039F4E8ECF0E0908195FFFDCF8093C7
:10F23000CE000895CF92DF92EF92FF92CF93DF93AB
:10F24000809112028130F9F413C08FEFC81AD80AE6
:10F25000E80AF80A81E4C81682E4D8068FE0E806D6
:10F26000F10458F0E0910E02F0910F02099505C0EB
:10F27000C12CD12C7601C0ECD0E0888188232CF7FA
:10F280008091C60021C08230A9F080E01DC08FEFC0
:10F29000C81AD80AE80AF80A81E4C81682E4D8062F
:10F2A0008FE0E806F10458F0E0910E02F0910F02B1
:10F2B000099505C0C12CD12C7601C8ECD0E088811D
:10F2C00088232CF78091CE00DF91CF91FF90EF90B3
:10F2D000DF90CF900895CF93882329F0C82F0E9404
:10F2E0001AF9C150E1F7CF910895CF93C82F0E942A
:10F2F0001AF9803251F484E10E9404F98C2F0E94A3
:10F3000004F980E10E9404F90CC0809111028F5F22
:10F3100080931102843129F4E0910E02F0910F02E2
:10F320000995CF9108950E941AF9803239F484E149
:10F330000E9404F980E10E9404F90895809111026D
:10F340008F5F80931102843129F4E0910E02F091D5
:10F350000F0209950895CF93DF9300D000D01F923C
:10F36000CDB7DEB7000042EA50E066ED70E087EE10
:10F3700090E00E9481F61FEF7724739468948824AC
:10F3800081F8912CA12CB12C00E0109210022FE1F9
:10F3900030E042E554EE60E070E080E090E00E94F2
:10F3A000E7F427E130E04BE354EE6EE170E080E0FB
:10F3B00090E00E94E7F428E130E043E254EE6CE391
:10F3C00070E080E090E00E94E7F428E130E04BE05C
:10F3D00054EE6AE570E080E090E00E94E7F429E1F5
:10F3E00030E042EF53EE68E770E080E090E00E948A
:10F3F000E7F41F3F31F5C92CDA2CEB2CF02E0E94DC
:10F400005FF79FE0980F943020F09FEC980F9430B6
:10F4100018F4182F177015C062E370E080E090E0D8
:10F420000E94AFF22FEFC21AD20AE20AF20A41E6B4
:10F43000C41649E0D406E104F10408F30E94E7F899
:10F44000A4CF80E00E943CF61130E9F481E085BF52
:10F4500015BEE0910E02F0910F02099522E130E015
:10F4600040EE53EE60E070E080E090E00E94E7F450
:10F4700028E030E04AEC53EE60E070E088ED90E088
:10F480000E94E7F4A0C122E130E040EE53EE60E0DC
:10F4900070E080E090E00E94E7F4123059F427E039
:10F4A00030E049ED53EE60E070E088ED90E00E94BE
:10F4B000E7F489C1133059F427E030E042ED53EE10
:10F4C00060E070E088ED90E00E94E7F47CC128E005
:10F4D00030E04AEC53EE60E070E088ED90E00E948E
:10F4E000E7F4143009F06FC175BE85BE78948AE1E7
:10F4F0000E94B9F7809310028091100281111EC002
:10F500002FE130E04BEA53EE60E170E080E090E004
:10F510000E94E7F428E130E043E953EE60E270E056
:10F5200080E090E00E94E7F40E94CBF68111FCCFCE
:10F530000E94CBF68823E1F3F89427CF19821A8230
:10F540001B821C8210920D0281E080930C0220E04D
:10F5500030E00F2EF3E25F2EF02D0F2EF4E38F2E0E
:10F56000F5E09F2EF02D6894662464F87724739458
:10F57000A12CBB24B3940F2EFEE1EF2EF3E0FF2E5F
:10F58000F02D00E0CC24C394D12C19821A821B8266
:10F590001C829091B50580912003981323C0898126
:10F5A0009A81AB81BC8181159940AD43B105D0F4FE
:10F5B00089819A81AB81BC810196A11DB11D89838E
:10F5C0009A83AB83BC839091B505809120039813F7
:10F5D00009C089819A81AB81BC8181159940AD4375
:10F5E000B10530F389819A81AB81BC818115994045
:10F5F000AD43B10508F0CDC0809120039091B505D1
:10F60000891B90E0833491050CF4ACC0E091B50502
:10F6100081E08E0F8093B505F0E0ED5EFD4F108127
:10F62000E091B50581E08E0F8093B505F0E0ED5EC9
:10F63000FD4F4081131731F08091B5058F5B8093AA
:10F64000B505A3CF4430D8F5842F8295880F880F55
:10F65000807C8D8330E4380F982FE091B50551E020
:10F660005E0F5093B505A92FB0E0AF5DBC4FF0E041
:10F67000ED5EFD4F50815C939F5F9313EECF90E062
:10F68000FC01EF5DFC4F8F599C4F302F5191350F8E
:10F69000E817F907D9F7E091B50581E08E0F80935F
:10F6A000B505F0E0ED5EFD4F80818D83831307C0CB
:10F6B000C60102C0880F991F4A95E2F7282B2F3008
:10F6C00009F065C05D8260910C0280E1689FB00125
:10F6D000112480910D0290E09C01220F331F820FB4
:10F6E000931F2FEF3FEFAE014B5F5F4F880F991FC6
:10F6F000880F991F0E94E7F480910D028F5F80931D
:10F700000D02803239F480910C028F5F80930C02DD
:10F7100000930D02F4016082709232050E94FAF7A4
:10F7200080911D03882379F089819A81AB81BC8106
:10F730000196A11DB11D89839A83AB83BC838091FF
:10F740001D038111F1CFB0922204A0922104F70190
:10F75000108211831BBE0E9483F8789431E0310F30
:10F76000202F13CF029709F010CFE091B505F0E0FC
:10F77000ED5EFD4F8081813509F007CFE091B50541
:10F78000F0E0ED5EFD4F8181882319F0FECE312F30
:10F79000FCCE89819A81AB81BC8181159940AD43B2
:10F7A000B10558F026EF3FEF41E052E060E170E034
:10F7B00080E090E00E94E7F409C0E0910E02F09131
:10F7C0000F02099503C0115010931202809112028A
:10F7D000813069F480E18093C4001092C5001092DA
:10F7E000C00086E08093C20088E18093C1008091D0
:10F7F0001202823069F480E18093CC001092CD0037
:10F800001092C80086E08093CA0088E18093C90006
:10F810006898709A0F2EF1E2CF2EF4E0DF2EF02DD3
:10F82000612C712C0F2EFEE1AF2EF3E0BF2EF02DD8
:10F830000F2EF1E28F2EF3E09F2EF02D0E941AF989
:10F84000982F803319F40E9493F9F8CF813369F52A
:10F850000E941AF98032E1F484E10E9404F981E403
:10F860000E9404F986E50E9404F982E50E9404F9E9
:10F8700080E20E9404F989E40E9404F983E50E9471
:10F8800004F980E50E9404F980E10E9404F9D6CFD2
:10F89000809111028F5F80931102843179F6E0919B
:10F8A0000E02F0910F020995C9CF803449F40E94ED
:10F8B0001AF9863810F00E941AF90E9493F9BECF07
:10F8C0008134F1F40E941AF9803821F482E00E9418
:10F8D00075F9B4CF813821F481E00E9475F9AECF7B
:10F8E000823821F480E10E9475F9A8CF883921F48B
:10F8F00083E00E9475F9A2CF80E00E9475F99ECF47
:10F90000823431F484E10E946BF90E9493F996CF1E
:10F91000853431F485E00E946BF90E9493F98ECF13
:10F920008D7F803519F40E9493F988CF913519F4B1
:10F930000E9493F983CF953559F40E941AF9F50185
:10F9400080830E941AF9F50181830E9493F976CF92
:10F95000963511F50E941AF98033B9F40E941AF90C
:10F960000E941AF9182F0E941AF9111104C08EE191
:10F970000E9475F963CF113021F487EA0E9475F96E
:10F980005DCF81E00E9475F959CF83E00E946BF949
:10F9900080E00E9475F952CF943609F0A1C00E9410
:10F9A0001AF9F60181830E941AF9F6018083809189
:10F9B00033058E7F809333050E941AF9853429F42C
:10F9C000809133058160809333058091210490916B
:10F9D0002204892B89F07401062D172D0E941AF933
:10F9E000F70181937F010F5F1F4F80912104909158
:10F9F00022040817190790F30E941AF9803209F0BF
:10FA000061C08091330580FF30C080911E039091CA
:10FA10001F03880F991F90931F0380931E038091EB
:10FA2000210490912204892B09F445C07401062D0C
:10FA3000172DF70161917F0180911E0390911F03A3
:10FA40000E9487FE80911E0390911F030196909360
:10FA50001F0380931E030F5F1F4F8091210490911D
:10FA600022040817190728F326C0F501818188238D
:10FA700024F481E08093310502C010923105809119
:10FA800031058BBF80911E0390911F03880F991F32
:10FA900090931F0380931E03F601808180FF09C0AD
:10FAA00080912104909122040196909322048093E6
:10FAB00021040E9483F884E10E9404F980E10E94FD
:10FAC00004F9BCCE809111028F5F809311028431C2
:10FAD00009F0B4CEE0910E02F0910F020995AECE7E
:10FAE000943709F082C00E941AF9F60181830E94BE
:10FAF0001AF9F601808380911E0390911F039923C8
:10FB000034F42091330522602093330505C0209101
:10FB100033052D7F20933305880F991F90931F0382
:10FB200080931E030E941AF9853431F480913305C5
:10FB300081608093330505C0809133058E7F80936B
:10FB400033050E941AF9803209F078CE84E10E94D0
:10FB500004F98091210490912204892B09F441C079
:10FB6000062D172D8091330580FF12C080911E0352
:10FB700090911F030E947FFE0E9404F980911E0352
:10FB800090911F03019690931F0380931E031FC043
:10FB900081FD08C0E0911E03F0911F0384910E9433
:10FBA00004F90CC080911E0390911F03A0E0B0E007
:10FBB0001196ABBFFC0187910E9404F980911E034E
:10FBC00090911F03019690931F0380931E030F5F74
:10FBD0001F4F80912104909122040817190708F4FF
:10FBE000C1CF80E10E9404F929CE953711F50E941A
:10FBF0001AF9803281F484E10E9404F98EE10E94B6
:10FC000004F987EA0E9404F981E00E9404F980E186
:10FC10000E9404F913CE809111028F5F809311022C
:10FC2000843109F00BCEE0910E02F0910F0209959C
:10FC300005CE963721F480E00E9475F9FFCD8091C2
:10FC400011028F5F80931102843109F0F7CDE091AA
:10FC50000E02F0910F020995F1CD97FB072E16F4D5
:10FC6000009407D077FD09D00E944CFE07FC05D018
:10FC70003EF4909581959F4F0895709561957F4FC3
:10FC800008950E9460FEA59F900DB49F900DA49FC3
:10FC9000800D911D11240895AA1BBB1B51E107C0C3
:10FCA000AA1FBB1FA617B70710F0A61BB70B881F0C
:10FCB000991F5A95A9F780959095BC01CD0108959B
:10FCC000A29FB001B39FC001A39F700D811D11249D
:10FCD000911DB29F700D811D1124911D0895FB018E
:10FCE000DC0102C001900D9241505040D8F70895B8
:10FCF000DC0101C06D9341505040E0F70895F9993F
:10FD0000FECF92BD81BDF89A992780B50895262F20
:10FD1000F999FECF1FBA92BD81BD20BD0FB6F894F0
:0EFD2000FA9AF99A0FBE01960895F894FFCF53
:0CFD2E008054696D6564206F75742100BD
:040000031000E00009
:00000001FF
